:0400000080EF00F09D
:100008005B82FACF4FF0FBCF50F0E1CF51F0E2CF57
:1000180052F0D9CF53F0DACF54F0F3CF55F0F4CFF4
:1000280056F0F6CF57F0F7CF58F0F8CF59F0F5CF94
:100038005AF0F2B6F2A012D081BE10D01D6A000E9E
:100048000001786F000E776F816B81CF81FFF2908E
:10005800F2964A0ECC6E9E929D8232D09DB29EA29E
:100068002FD09E921D50D8B404D00D0E1D18D8A4C0
:1000780003D081CF81FF23D00E0E1D18D8A409D03C
:10008800010E0001816F81CF81FFF290F2869D926F
:1000980016D0050E1D600AD00001D890783381AEC5
:1000A80002D0788702D00001789709D00001D89053
:1000B800773381AE02D0778F02D00001779F1D2A57
:1000C80033EC04F05AC0F5FF59C0F8FF58C0F7FFE9
:1000D80057C0F6FF56C0F4FF55C0F3FF54C0DAFF0F
:1000E80053C0D9FF52C0E2FF51C0E1FF50C0FBFF2F
:1000F8004FC0FAFF5B92110024EF0DF0200E2B6029
:1001080001D0120064B2120004D079C073F07AC032
:1001180074F0000179517319F8E17A517419D8A46F
:10012800F4D77151735DB16F72517459B26FB2AF38
:100138000CD07151735D9F6F72517459A06FFF0E8F
:100148009F25B16F7F0EA021B26FB2BF0CD0890E70
:10015800B15D130EB259D8A006D0780E7325716F11
:10016800EC0E7421726F68516911D8B406D068C05A
:10017800D9FF69C0DAFFDFBEB1D18105D8B403D099
:100188007E51D8B465D18051D8A40DD07851820F52
:10019800D96EDA6A77C0DFFF0E0E7819D8A457D166
:1001A800010E806F54D1400E946F020E956F000EB1
:1001B800976F000E966F000E996F080E986FE3EC1C
:1001C8000CF0A10E946F956B000E976F000E966F52
:1001D800000E996F060E986FE3EC0CF0B56B7E6B12
:1001E8000D0E7819D8A404D077A17F8B77A37F8DC3
:1001F8000C0E7819D8A40AD077A17F8177A37F83C2
:1002080077A57F8577A77F8777A97F897F51D8B41E
:100218003FD07FAD07D0090E7819D8B477BD02D08A
:10022800778D7F9D7FAB07D0090E7819D8B477BD3D
:1002380002D0778D7F9B7FA107D0090E7819D8B49B
:1002480077B302D077837F917FA307D0090E7819FF
:10025800D8B477B502D077857F937FA507D0090EEC
:100268007819D8B477B702D077877F957FA707D05A
:10027800090E7819D8B477B902D077897F977FA902
:1002880007D0090E7819D8B477BB02D0778B7F993D
:10029800080E7819D8A419D08AAB02D0010E01D063
:1002A800000E9F6F77AB02D0010E01D0000E9F1B8E
:1002B800D8B40BD077BB02D07DA503D077BB7DA582
:1002C80004D0470EA16FB52B7E85080E7819D8B4D7
:1002D80077B118D08AA102D0010E01D0000E9F6F0D
:1002E80077A102D0010E01D0000E9F1BD8A48ABDB1
:1002F80009D0B551A10FD96EDA6A530EDF6EB52B4E
:1003080077817E810A0E7819D8A41DD08CAF02D0CF
:10031800010E01D0000E9F6F77AF02D0010E01D001
:10032800000E9F1BD8B40FD077BF02D07DA303D097
:1003380077BF7DA308D0B551A10FD96EDA6A390EFF
:10034800DF6EB52B7E837851820FD96EDA6A77C05B
:10035800DFFF02014083000190A502D00201409313
:100368000201408B000190A702D00201409B0201CC
:10037800408100018AAF02D002014091020140850C
:1003880000018AA902D0020140950201408F0001B4
:100398008FA502D00201409F00017EA302D0020176
:1003A80040830001B46B2ED0B451820FD96EDA6A43
:1003B800DF50AF6FB36BAFB11ED0B451080DA90EAB
:1003C800F3249F6F3E0EF420A06FB3519F27000EB9
:1003D800A0239FC0F6FFA0C0F7FFB551A10FD96EAB
:1003E800DA6A0800F5CFDFFFB551A10FD96EDA6AD6
:1003F800DF50D8A4B52BD890AF33B32B070EB36515
:10040800DAD7B42B0F0EB46103D0050EB565CCD77F
:10041800070EB5610ED0420E946F020E956FA10EB5
:10042800966F976B000E996F060E986F33EC0CF071
:100438000ED0420E946F020E956F000E976F010E4C
:10044800966F000E996F060E986FE3EC0CF0816BB7
:10045800B06BB46B400EB425D96EDA6A020EDA229C
:10046800B451600FE16EE26ADE50E618D8B403D0EA
:10047800010EB06F04D0B42B070EB465EBD77551DD
:100488007611D8B40CD07551B15DB251800A9F6F06
:100498007651800A9F59D8A002D0010EB06FB005DE
:1004A800D8A41CD022EE40F010EE60F0070EDBCF8F
:1004B800E3FFE806FCE2010E946F400E956F020E12
:1004C800966F080E976F010E41EC06F094C068F025
:1004D80095C069F073C071F074C072F06A516B1105
:1004E800D8B406D06AC0D9FF6BC0DAFFDFBE1200ED
:1004F80068EC0DF0000E0001946F480E956F020E27
:10050800966F010E976F010E41EC06F094C06AF0E9
:1005180095C06BF0120002012205D8A40ED020511C
:100528001F0B0009D8A409D00A8E030E2119D8A4DC
:1005380003D0010E286E01D0286A2251D8A41200D7
:1005480020511F0B020AD8A4120024510F0B0009D6
:10055800D8B4120024510F0B456E020E45601200EC
:10056800200E2B18D8A412000A8E24BF11D02451B3
:100578000F0B020DF350110FD96EDA6ADECF4AF075
:10058800DDCF4BF024510F0B456E4550150F10D0A1
:1005980024510F0B020DF3500D0FD96EDA6ADECF1E
:1005A8004AF0DDCF4BF024510F0B456E4550170F25
:1005B800D96EDA6ADF50496E49B006D0FB0E4A148C
:1005C8004A6EFF0E4B1404D0040E4A104A6E4B506C
:1005D8004B6E24BF06D024510F0B020DF350110FA0
:1005E80005D024510F0B020DF3500D0FD96EDA6AA6
:1005F8004AC0DEFF4BC0DDFF030E2119D8A423D06B
:100608004AC0D9FF4BC0DAFFDFAE10D024BF06D0F6
:1006180024510F0B456E4550150F05D024510F0B73
:10062800456E4550170FD96EDA6ADF824AC0D9FF86
:100638004BC0DAFF000EDB844AC0D9FF4BC0DAFF9B
:10064800000EDB8E1200040E4A184A6E4B504B6E99
:100658004AC0D9FF4BC0DAFFDFAE1BD04AC0D9FF72
:100668004BC0DAFF7F0EDF164AC0D9FF4BC0DAFF56
:10067800000EDB8C000E3E6E050E3D6E4AC03FF04C
:100688004BC040F0000E426E020E416EA3EC0BF020
:1006980006D04AC0D9FF4BC0DAFF000EDB8C040E2F
:1006A8004A184A6E4B504B6E49B206D04AC0D9FF21
:1006B8004BC0DAFFDFAE26D0020124BF06D024519A
:1006C8000F0B456E4550150F05D024510F0B456E85
:1006D8004550170FD96EDA6ADF924AC0D9FF4BC06E
:1006E800DAFF3B0EDF16000E3E6E050E3D6E4AC069
:1006F8003FF04BC040F0000E426E020E416EA3EC7C
:100708000BF006D04AC0D9FF4BC0DAFF3B0EDF160C
:10071800020124510F0B456E466A530E4524476E5D
:100728000F0E4620486E47C0D9FF48C0DAFFFE0EBC
:10073800DF16120020EE01F01B50D9261C50DA22D9
:10074800DF50306E3050045C000E0558D8A004C04D
:1007580030F03050045E000E055A2F6A0FD0280E74
:100768002F24D96EDA6A020EDA2201C0E1FF02C034
:10077800E2FFDFCFE7FF014A022A2F2A30502F5C21
:10078800D8A0EDD704500510D8B432D020EE01F02F
:100798001950D9261A50DA22080EDF6E20EE02F020
:1007A8001950D9261A50DA22280EDE6E020EDD6E96
:1007B8001BC0D9FF1CC0DAFFDFBC0DD019C0D9FFA0
:1007C8001AC0DAFF480EDF6E19C0D9FF1AC0DAFF67
:1007D800000EDB8E120019C0D9FF1AC0DAFF080E0E
:1007E800DF6E19C0D9FF1AC0DAFF000EDB8E1200C7
:1007F80020EE01F01950D9261A50DA22080EDF6EC1
:1008080020EE02F01950D9261A50DA22200EDE6E98
:10081800020EDD6E19C0D9FF1AC0DAFF040EDF6EB2
:1008280019C0D9FF1AC0DAFF000EDB8E0650071078
:10083800D8B40ED020EE06F001D80AD00500FA6E22
:10084800DE50FD6EDE50FE6EF850FF6EFA5012005C
:10085800039E2350D8A412009AEC09F012002B042E
:10086800D8B464BA05D0626A60806088020E2B6EC4
:1008780062B460A403D06294CCEC0CF064A202D001
:10088800A194120062B060A006D0C4EC05F0A08468
:10089800040E2B6E629062B860A802D00FEC0DF0C7
:1008A80062AC1AD060AC0ED0000E3E6E730E3D6E78
:1008B800000E3F6E000E406E000E426E010E416E3D
:1008C800A3EC0BF0629C37EC0DF02450D8A424065E
:1008D8002450D8B49AEC09F062BA60AA02D055EC58
:1008E8000CF062B260A20FD07F0E3E6E3D68000E23
:1008F8003F6E000E406E000E426E010E416EA3EC7C
:100908000BF00F015F6B040E2B6002D0A194120054
:1009180060A62CD04E6A62A629D063CF2CF02C306A
:10092800E832E8320F0B266E62962CB403D02650BC
:10093800150F02D02650170FD96EDA6ADF702650CD
:10094800D8A403D0F9EC09F00DD0000E3E6E720E5B
:100958003D6E2C0E3F6E406A000E426E000E416ED8
:10096800A3EC0BF04E2A030E4E64D5D7A1941200C7
:10097800800E02012019D8A41200C00E0A6E75D08C
:10098800E90E086E3F0E096E000E0C6E120E0B6E0D
:1009980012002251D8A43DD02251020D2F0EF3246B
:1009A800F66E3F0EF420F76E0900F5CF08F00A0046
:1009B800F5CF09F0020E08242F6E000E0920306EC4
:1009C8002FC0F6FF30C0F7FFF86A020EF76403D0B5
:1009D8000800F55005D0F6CFE1FFF7CFE2FFE7506A
:1009E8000B6E030E08242F6E000E0920306E2FC0E8
:1009F800F6FF30C0F7FFF86A020EF76403D008006C
:100A0800F55005D0F6CFE1FFF7CFE2FFE7500C6EC7
:100A180012000A6A1200030E226123D02251020D2D
:100A2800290EF324F66E3F0EF420F76E0900F5CF79
:100A380008F00A00F5CF09F008C0F6FF09C0F7FF73
:100A4800F86A020EF76403D00800F55005D0F6CF17
:100A5800E1FFF7CFE2FFE7502F6E2F500B6E0C6AC5
:100A680012000A6A12000A6A12002351010AD8B455
:100A780087D7030AD8B48DD7010AD8B4CCD7F3D70F
:100A8800A0940F015F6B626A536B540E0001946F60
:100A98000F0E956F000E976F000E966F000E996FF0
:100AA800010E986FE3EC0CF0160E616E9F0E0F01AD
:100AB8005B6F7B0E606E00019C6B9C51040D000EF9
:100AC800F324D96E020EF420DA6EDE6ADE6ADE6A7C
:100AD800DD6A9C2B070E9C65F0D7648C0F015C6B5C
:100AE8006498649C62960A6A036A000E056E000E9A
:100AF800046E62B6F7D7010E226E010E216E206ACF
:100B08001F6A276A00019C6B9C51020DF3500D0F60
:100B1800D96EDA6ADE6ADD6A9C51020DF350110F54
:100B2800D96EDA6ADE6ADD6A9C51170FD96EDA6A05
:100B3800DF6A9C51150FD96EDA6ADF6A9C2B010EA9
:100B48009C65E2D7080E0D6E020E0E6E160E0F0192
:100B5800536F020E0201036F200E026F080E016F21
:100B6800040E006F008F2E6A000E00016D6F000EDC
:100B78006E6F000E6F6F000E706F1E6A2B6A120088
:100B8800A0940F015F6B626A536B540E2F6E0F0EA9
:100B9800306E000E326E000E316E000E346E010E95
:100BA800336EF9EC0CF0160E616E9F0E0F015B6F41
:100BB8007B0E606E376A3750040D000EF324D96E31
:100BC800020EF420DA6EDE6ADE6ADE6ADD6A372A31
:100BD800070E3764F0D7648C0F015C6B6498649CD3
:100BE80062960A6A036A000E056E000E046E62B60B
:100BF800F7D7010E226E010E216E206A1F6A276A3E
:100C0800376A3750020DF3500D0FD96EDA6ADE6A73
:100C1800DD6A3750020DF350110FD96EDA6ADE6AB9
:100C2800DD6A3750170FD96EDA6ADF6A3750150F49
:100C3800D96EDA6ADF6A372A010E3764E2D7080EFE
:100C48000D6E020E0E6E160E0F01536F020E02018C
:100C5800036F200E026F080E016F040E006F008FE5
:100C68002E6A000E00016D6F000E6E6F000E6F6F22
:100C7800000E706F1E6A2B6A12009A6F0001945161
:100C8800D8B405D09A51020DF3500D0F04D09A51E3
:100C9800020DF350110FD96EDA6ADECF9BF0DDCF6B
:100CA8009CF09B519C11D8A405D0000E946F000EA7
:100CB800956F120020EE02F09B51D9269C51DA2242
:100CC80095C0DEFF96C0DDFF20EE01F09B51D926CE
:100CD8009C51DA2297C0DFFF9BC0D9FF9CC0DAFF86
:100CE800400EDF169BC0D9FF9CC0DAFF000EDB86E2
:100CF8009BC0D9FF9CC0DAFF000EDB8E9451D8B49C
:100D080013D09A51020DF3500D0FD96EDA6ADECF67
:100D180098F0DDCF99F0040E981B000E991B9A519C
:100D2800020DF3500D0F12D09A51020DF350110F0E
:100D3800D96EDA6ADECF98F0DDCF99F0040E981BF1
:100D4800000E991B9A51020DF350110FD96EDA6AF1
:100D580098C0DEFF99C0DDFF9BC094F09CC095F061
:100D68001200356E2F50D8B405D03550020DF3500F
:100D78000D0F04D03550020DF350110FD96EDA6AF9
:100D8800DECF36F0DDCF37F036503710D8A405D097
:100D9800000E2F6E000E306E120020EE02F036505C
:100DA800D9263750DA2230C0DEFF31C0DDFF20EE11
:100DB80001F03650D9263750DA2232C0DFFF36C06C
:100DC800D9FF37C0DAFF400EDF1636C0D9FF37C06B
:100DD800DAFF000EDB8636C0D9FF37C0DAFF000E17
:100DE800DB8E2F50D8B413D03550020DF3500D0FB1
:100DF800D96EDA6ADECF33F0DDCF34F0040E331A61
:100E0800000E341A3550020DF3500D0F12D0355024
:100E1800020DF350110FD96EDA6ADECF33F0DDCF51
:100E280034F0040E331A000E341A3550020DF35004
:100E3800110FD96EDA6A33C0DEFF34C0DDFF36C069
:100E48002FF037C030F012000DC0D9FF0EC0DAFF06
:100E5800000EDFBC010E306E040E0D180D6E0E5024
:100E68000E6E080E2B18D8A40CD0020122517F0B4D
:100E78000F015C6F5C51D8B402D0100E01D0040E83
:100E88002B6E2904D8A43AD020EE02F00D50D926B2
:100E98000E50DA22280EDE6E020EDD6E72EC08F0BD
:100EA800020E2A18D8A40DD00DC0D9FF0EC0DAFF43
:100EB800040EDF6E0DC0D9FF0EC0DAFF000EDB8E08
:100EC80012003050D8A40DD00DC0D9FF0EC0DAFFE3
:100ED800480EDF6E0DC0D9FF0EC0DAFF000EDB8EA4
:100EE80012000DC0D9FF0EC0DAFF080EDF6E0DC06C
:100EF800D9FF0EC0DAFF000EDB8E120003AE13D04E
:100F080006500710D8B40ED020EE06F001D80AD04B
:100F18000500FA6EDE50FD6EDE50FE6EF850FF6E74
:100F2800FA501200039E296A1200020120511F0B79
:100F3800E806D8A412002451D8A41200060E2119DC
:100F4800D8B418D01FD02E04D8A41CD0B60E086E62
:100F58003F0E096E000E0C6E090E0AD0C00E0A6E06
:100F680011D0310E086E3F0E096E000E0C6E3F0E4A
:100F78000B6EF4D72351210AD8B4E5D7030AD8B4A5
:100F8800F0D7010A2039E832030BE806D8A412008A
:100F980026D047EC0DF01200930E086E096A000E79
:100FA8000C6E010E0B6EC10E0A6E1200800E0A6ED8
:100FB80023C293F093C02FF022515FEC0DF0120082
:100FC800920E086E096A000E0C6E010E0B6E810EF1
:100FD8000A6E1200800E0A6E22C292F0120021518F
:100FE800010AD8B41200030AD8B4D6D7010AD8B473
:100FF800E7D70A0AD8B4CDD7030AD8B4D7D7010A95
:10100800D8A41200E7D764980ABE36D003AE09D038
:10101800020E296E1F50D8B444EC0AF0216A226AE5
:10102800120020EE01F01950D9261A50DA22080EC3
:10103800DF6E20EE02F01950D9261A50DA22200E5F
:10104800DE6E020EDD6E19C0D9FF1AC0DAFF0C0E73
:10105800DF6E19C0D9FF1AC0DAFF000EDB8E0DC093
:10106800D9FF0EC0DAFF040EDF6E0DC0D9FF0EC027
:10107800DAFF000EDB8E1200020120AF0ED0010E47
:10108800296E2050D8B444EC0AF0216A226A235011
:10109800D8A412009AEC09F01200020E296E20EE74
:1010A80001F01950D9261A50DA22080EDF6E20EE08
:1010B80002F01950D9261A50DA22200EDE6E020EDE
:1010C800DD6E19C0D9FF1AC0DAFF040EDF6E19C031
:1010D800D9FF1AC0DAFF000EDB8ED7D7080E2F6EA5
:1010E8000C5010E1080E0B5CD8B00CD00BC02FF0E0
:1010F8002A50D8A402D0010E04D02A04D8A402D0C1
:10110800020E2A6E2F500B5E000E0C5A20EE01F0D4
:101118000D50D9260E50DA222FC0DFFF280E00010D
:101128007B6F020E7C6F0AA01CD03AD008C0F6FF75
:1011380009C0F7FFF86A7BC0D9FF7CC0DAFF020E4E
:10114800F76403D00800F55005D0F6CFE1FFF7CFDC
:10115800E2FFE750DF6E084A092A00017B4B7C2B2F
:101168002F062F50D8B41200E1D708C0F6FF09C0E7
:10117800F7FFF86A7BC0D9FF7CC0DAFF020EF7647C
:1011880003D00800F55005D0F6CFE1FFF7CFE2FF16
:10119800E750DF6E084A092A00017B4B7C2B2F069B
:1011A8002F50D8B41200E1D702012039E832030BDE
:1011B8000009D8A412003AD00A8E080E2B6E12002D
:1011C800BCEC04F012003BEC09F012002E0E086E85
:1011D800096A0A80010E0B6E0A8E12008DEC0AF065
:1011E80012008FEC02F0120024512D0F4C6E4CC0EF
:1011F80008F0096A0A80010E0B6E0A8E12000A8E28
:1012080024512D0FD96EDA6A22C2DFFF1200000EB8
:101218003E6E020E3D6E000E3F6E000E406E000EDA
:10122800426E000E416EA3EC0BF012002151000A31
:10123800D8B4D4D7010AD8B4D4D7020AD8B4D1D7ED
:10124800060AD8B4B9D7030AD8B4BAD7010AD8B4A9
:10125800DED70F0AD8B4BAD7010AD8B4B4D7030A6C
:10126800D8B4C2D7010AD8B4CAD7070A12000A8E5E
:10127800540E2F6E0F0E306E000E326E000E316E51
:10128800000E346E010E336EF9EC0CF0000E2F6E6A
:10129800020E306E000E326E000E316E000E346E8D
:1012A800200E336EF9EC0CF0648C456A4550170F2C
:1012B800D96EDA6ADF6A4550150FD96EDA6ADF6AC5
:1012C800452A010E4564F2D72D0E2F6E306A000EA6
:1012D800326E000E316E000E346E010E336EF9EC74
:1012E8000CF0649C080E0D6E020E0E6E000E1B6E46
:1012F800020E1C6E1BC019F01CC01AF022C22EF080
:101308002E50D8A403D0100E2B6E1200000E3E6E85
:10131800010E3D6E2E0E3F6E406A000E426E010EAB
:10132800416EA3EC0BF0200E2B6E12002250D8A4B5
:101338001200010E226E2150D8A41200010E216E57
:10134800020E2918D8A414D020EE01F00D50D92689
:101358000E50DA22DF6A0DC0D9FF0EC0DAFF480E40
:10136800DF6E0DC0D9FF0EC0DAFF000EDB8E120053
:101378002904D8A41200256A20EE01F01B50D926B2
:101388001C50DA22080EDF6E20EE02F01B50D92620
:101398001C50DA22200EDE6E020EDD6E1BC0D9FF55
:1013A8001CC0DAFF040EDF6E1BC0D9FF1CC0DAFFB9
:1013B800000EDB8E010E256E20EE01F01950D926A5
:1013C8001A50DA22080EDF6E20EE02F01950D926E4
:1013D8001A50DA22200EDE6E020EDD6E19C0D9FF19
:1013E8001AC0DAFF800EDF6E12002D0E246E2CC09C
:1013F8004DF0FD0E4D16D8A43BD02CC04DF0D89022
:101408004D323F0E4D164D50040D000EF3241B6E49
:10141800020EF4201C6E1BC019F01CC01AF0040E3A
:101428001918196E1A501A6E1BC0D9FF1CC0DAFFA2
:10143800DF30E8320F0B0D0AD8A417D0200E2F6E1C
:10144800020E306E20EE02F01B50D9261C50DA2214
:10145800DECF31F0DDCF32F0000E346E080E336E81
:1014680077EC0CF064EC0BF01200E0EC0BF01200DF
:101478002C50FD0B040AD8A4120028EC07F0120027
:10148800206A1F6A020E2918D8A41FD020EE01F086
:101498001950D9261A50DA22080EDF6E20EE02F013
:1014A8001950D9261A50DA22280EDE6E020EDD6E89
:1014B80019C0D9FF1AC0DAFF480EDF6E19C0D9FF6C
:1014C8001AC0DAFF000EDB8E12000B500201265DF7
:1014D8000C502759D8B004D026C20BF027C20CF004
:1014E80072EC08F020EE02F00D50D9260E50DA22E8
:1014F800280EDE6E020EDD6E0DC0D9FF0EC0DAFFBB
:10150800480EDF6E0DC0D9FF0EC0DAFF000EDB8E6D
:1015180012000201286B296B30D00A8E2804D8A447
:1015280037D0288335D00A8E33D00A8E24510F0B3A
:101538000009D8B42DD024BF06D024510F0B020DBA
:10154800F350110F05D024510F0B020DF3500D0F5E
:10155800D96EDA6ADECF2FF0DDCF30F02FC0D9FF99
:1015680030C0DAFFDFAE14D02FC0D9FF30C0DAFFA9
:10157800DFA40ED0010E286F0BD020511F0B000ADC
:10158800D8B4CBD7010AD8B4CED7030AD8B4CDD7AC
:101598000AAE1200280E086E020E096E0A80020EAC
:1015A8000B6E1200366E000E376E020E386E2F501C
:1015B800306E316AD890303631363650326E336AF2
:1015C800D89032363336D8903236333630503224CB
:1015D800346E31503320356ED89034363536D89045
:1015E80034363536345037263550382237C0D9FF8F
:1015F80038C0DAFFDF9E2F50D8A405D03650020D30
:10160800F350110F04D03650020DF3500D0FD96E60
:10161800DA6A37C0DEFF38C0DDFF37C0D9FF38C00F
:10162800DAFFDF9C20EE04F03750D9263850DA2252
:10163800DF8C1200000E0001686F000E696F6C6B82
:10164800010E766FF40E756F04D079C071F07AC010
:1016580072F079517119F9E17A517219D8A4F5D754
:101668001E0E396E010E99EC0CF0000E2F6E480E0E
:10167800306E020E316E010E326E010EB5EC06F0C0
:101688002FC06AF030C06BF0400E2F6E020E306E25
:10169800000E326E000E316E000E346E080E336E80
:1016A800F9EC0CF022EE40F010EE60F0070EDBCF04
:1016B800E3FFE806FCE200017F6B7E6B7D6B1200A6
:1016C8002A6A236A206A1F6A256A296A0DC0D9FF17
:1016D8000EC0DAFF7F0EDF16040E0D180D6E0E50C9
:1016E8000E6E0DC0D9FF0EC0DAFF7F0EDF16040E96
:1016F8000D180D6E0E500E6E19C0D9FF1AC0DAFF04
:101708007F0EDF160A6A000E0C6E000E0B6E036A5F
:10171800000E056E000E046ED8EC08F0000E3E6E4A
:10172800030E3D6E000E3F6E000E406E000E426EC0
:10173800000E416EA3EC0BF007EC08F0120015D078
:101748000001792904E17F0E7A19D8B403D0794BC6
:101758007A2B1200000E7A6F000E796F12001EECC1
:101768000BF0120099EC07F012003DC043F03EC0A8
:1017780044F04450000AD8B404D07F0AD8A4120018
:1017880018D04350010AD8B4EAD7030AD8B41200D3
:10179800010AD8B4E7D7060AD8B41200770AD8B431
:1017A8001200010AD8B4CCD7070AD8B41200010A2B
:1017B80012004350FF0A1200020E2918D8A403D0C1
:1017C8009EEC03F01200296A2550D8A41FD020EE01
:1017D80001F01950D9261A50DA22080EDF6E20EED1
:1017E80002F01950D9261A50DA22200EDE6E020EA7
:1017F800DD6E19C0D9FF1AC0DAFF0C0EDF6E19C0F2
:10180800D9FF1AC0DAFF000EDB8E1200256A12001B
:10181800826A8B6A946A816A8A6A800E936E788E6D
:10182800F19E7A8E81CF81FFF180F290F286D08E80
:10183800F28EF28C050ECA6E900ECB6E9F829E922F
:101848009D92820E0001946F956B000E976F9669BA
:10185800000E996F100E986FE3EC0CF0120096C012
:101868009DF097C09EF094C09BF095C09CF010D05E
:101878009DC0D9FF9EC0DAFFDF509A6F9D4B9E2B0B
:101888009BC0D9FF9CC0DAFF9AC0DFFF9B4B9C2B03
:101898009807D8A099079829EBE19929D8B412009C
:1018A800E7D70F0153A11DD01BC0D9FF1CC0DAFF19
:1018B800800EDE18D8A414D00DC0D9FF0EC0DAFFF0
:1018C800840EDE18D8A40CD01BC0D9FF1CC0DAFFC8
:1018D8000C0EDF6E1BC0D9FF1CC0DAFF000EDB8EBA
:1018E8005391629A120031C037F032C038F02FC0DD
:1018F80035F030C036F010D037C0D9FF38C0DAFF25
:10190800DF50396E374A382A35C0D9FF36C0DAFF7A
:1019180039C0DFFF354A362A3306D8A034063328C3
:10192800EBE13428D8B41200E7D73C6E39A405D0CF
:10193800000E2F6E3C50D6EC0AF039A205D0010EED
:101948002F6E3C50D6EC0AF0530E3C243A6E3B6A9C
:101958000F0E3B223AC0D9FF3BC0DAFF39C0DFFF88
:1019680012002B50D8A41200646A606A160E616EC9
:101978009F0E0F015B6F7B0E606ED08EA284A084D9
:10198800F28E01D0648664A6FDD7010E2B6E12007C
:10199800276A000E3E6E740E3D6E000E3F6E000EFE
:1019A800406E000E426E000E416EA3EC0BF0649286
:1019B800609401D0629462B4FDD71E6A120094C08C
:1019C8009AF095C09BF008D09AC0D9FF9BC0DAFF67
:1019D80096C0DFFF9A4B9B2B9807D8A099079829A8
:1019E800F3E19929D8B41200EFD72FC035F030C0F1
:1019F80036F008D035C0D9FF36C0DAFF31C0DFFF76
:101A0800354A362A3306D8A034063328F3E1342879
:101A1800D8B41200EFD7608462986482010E276EF2
:101A28001E6A000E3E6E750E3D6E000E3F6E000E75
:101A3800406E000E426E000E416EA3EC0BF01200D9
:101A480000EE60F0340EEE6AE806FDE100EE01F00B
:101A58002E0EEE6AE806FDE15B905B92000EF86ED2
:101A6800000155EF0DF0010E00016D27000E6E23E9
:101A78006F2370232750D8A412001E2A1E50D8A402
:101A880012001E681200280E016E020E026E000E71
:101A9800056E080E046EEC0E066E1A0E076E038EA7
:101AA8001200000E0CEC0CF044EC05F0B5EC0CF058
:101AB80082EC00F0FDD7306E3050D8A412002FC051
:101AC80075F00001766B120002014851070B826E17
:101AD80048C27DF0120002014851070B826E48C2CD
:0E1AE8007DF0120028C248F26FEC0DF01200E3
:103EA8000062595A5B5C5D5E5F6061555767856368
:103EB800002F0405060708090A0B0C0D0E0F101138
:103EC80012131415161718191A1B1C1D3089322EB7
:103ED8002D271E1F20212223242526343336373848
:103EE800874A524F0000000000483A3B3C3D3E2CB8
:103EF800292B51504D465654004B4E0000000000EF
:103F0800003F404142432A494C8A8B00350000005B
:103F18000028580000000000000000000000000019
:103F280000FB3F703FCD3FA43F05010906A10105F5
:103F38000719E029E7150025017501950881029503
:103F48000175088103950575010508190129059171
:103F58000295017503910195067508150025FF0561
:103F680007190029FF8100C034034D006900630070
:103F780072006F0063006800690070002000540040
:103F88006500630068006E006F006C006F006700DA
:103F98007900200049006E0063002E000902290004
:103FA800010100C0320904000002030101000921D7
:103FB80011010001223F00070581030800010705E0
:103FC80001030800011C034B006500790062006FC3
:103FD800006100720064002000500043003800387F
:103FE800001201000200000008D804550001000179
:083FF8000200010403090400AA
:020000040030CA
:0E0000000032011EFF0081FF03C003E0034039
:00000001FF
